:100000000C94E9010C941A020C941A020C941A0232
:100010000C941A020C941A020C941A020C941A02F0
:100020000C941A020C941A020C941A020C941A02E0
:100030000C941A020C941A020C941A020C941A02D0
:100040000C941A020C941A020C941A020C941A02C0
:100050000C941A020C941A020C941A020C949B0F22
:100060000C941A020C94650F0C943B0F0C941A021A
:100070000C941A020C941A020C941A020C941A0290
:100080000C941A020C941A020C941A020C941A0280
:100090000C94050F0C94DB0E0C941A020C941A02AB
:1000A0000C941A020C941A020C941A020C941A0260
:1000B0000C941A020C941A020C941A020C941A0250
:1000C0000C941A020C941A020C941A020C941A0240
:1000D0000C941A020C941A020C941A020C941A0230
:1000E0000C941A020C947B020C9447060C94ED05B8
:1000F0000C94C6040C94A7040C94AC060C94500603
:100100000C9433050C94D8040C94ED090C94CE0493
:100110000C942C030C94B6040C94C0040C949D0213
:100120000C94C1030C9427080C94B3040C94EC07B2
:100130000C94E6040C943F020C948F020C94D404AB
:100140000C94DC040C94F0050C944D060C94A3075D
:100150000C9423050C94AB040C94BC030C94BC04C9
:100160000C94F3050C94E2040C94A9060C94DF02A1
:100170000C94A6070C9453060C94AF060C94E50F50
:100180000C946C020C94700B0C944A060C9451085D
:100190000C94A0070C9434090C9464090C94CA04C0
:1001A0000C94AF047374645F6D7367732F54696D3F
:1001B000650063643731363663373463353532630F
:1001C000333131666263633266653561376263324B
:1001D000383900726F7373657269616C5F6D736734
:1001E000732F546F706963496E666F0030616435B8
:1001F00031663838666334343839326638633130C2
:1002000036383430373736343630303500726F7325
:1002100073657269616C5F6D7367732F4C6F6700F4
:1002200031316162643733316332353933333236D9
:100230003163643631383362643132643632393591
:1002400000726F7373657269616C5F6D7367732F92
:1002500052657175657374506172616D00396630F5
:100260006539386264613635393831393836646415
:1002700066353361666137613430653439007374D3
:10028000645F6D7367732F537472696E67003939D9
:100290003263653861313638376365633863386295
:1002A0006438383365633733636134316431000057
:1002B0000020002300260029002C002F003200001F
:1002C00001000003010601090100000A0B02090CEC
:1002D0000D0E0807030401000000000000000000EC
:1002E000000000000000000000000000000000000E
:1002F00000000000001211100000000000000000CB
:1003000000000000000000000000000000000000ED
:10031000002200250028002B002E003100340002AE
:10032000010000050108010B010000210024002745
:10033000002A002D003000330001010000040107F5
:10034000010A01050505050705080808080202025B
:10035000020A0A0808040404040101010101010160
:10036000010303030303030303040707070C0C0C37
:100370000C0C0C0C0C02020202060606060606060F
:10038000060B0B0B0B0B0B0B0B01021020200808AC
:1003900010204010204080020102010804020101E7
:1003A00002040810204080804020100804020180D0
:1003B0000402018040201008040201080402010127
:1003C0000204081020408001020408102040800030
:1003D000E50F11241FBECFEFD1E2DEBFCDBF00E09D
:1003E0000CBF12E0A0E0B2E0E2E3FAE200E00BBFF3
:1003F00002C007900D92A63BB107D9F728E0A6EB03
:10040000B2E001C01D92AB3CB207E1F711E0C9EECA
:10041000D1E000E006C021970109802FFE010E9473
:10042000BD12C83ED10780E00807A9F70E94341129
:100430000C9417150C940000CF93DF9300D01F92FB
:100440001F92CDB7DEB724E232E03A83298323E05E
:100450002B837D836C83DC01ED91FC910190F08115
:10046000E02DAE014F5F5F4F67E070E019950F9090
:100470000F900F900F900F90DF91CF910895AF9252
:10048000BF92CF92DF92EF92FF920F931F93CF9381
:10049000DF936C017B018B01040F151FEB015E01E3
:1004A000AE18BF08C017D10759F06991D601ED9178
:1004B000FC910190F081E02DC6011995892B79F707
:1004C000C501DF91CF911F910F91FF90EF90DF90C9
:1004D000CF90BF90AF900895FC01538D448D252F90
:1004E00030E0842F90E0821B930B541710F0CF96CE
:1004F000089501970895FC01918D828D981761F000
:10050000A28DAE0FBF2FB11D5D968C91928D9F5F16
:100510009F73928F90E008958FEF9FEF0895FC01F5
:10052000918D828D981731F0828DE80FF11D858DA8
:1005300090E008958FEF9FEF0895FC01918D228D3B
:10054000892F90E0805C9F4F821B91098F739927C0
:1005500008958DE593E00E949D0221E0892B09F426
:1005600020E0822F089580EC92E00E949D0221E01D
:10057000892B09F420E0822F0895FC01A48DA80F97
:10058000B92FB11DA35ABF4F2C91848D90E00196D5
:100590008F739927848FA689B7892C93A089B189F5
:1005A0008C91837080648C93938D848D981306C096
:1005B0000288F389E02D80818F7D80830895EF92FA
:1005C000FF920F931F93CF93DF93EC0181E0888F0D
:1005D0009B8D8C8D98131AC0E889F989808185FFDD
:1005E00015C09FB7F894EE89FF896083E889F9897F
:1005F00080818370806480839FBF81E090E0DF9181
:10060000CF911F910F91FF90EF900895F62E0B8DD3
:1006100010E00F5F1F4F0F731127E02E8C8D8E118E
:100620000CC00FB607FCFACFE889F989808185FFF5
:10063000F5CFCE010E94BD02F1CFEB8DEC0FFD2F67
:10064000F11DE35AFF4FF0829FB7F8940B8FEA89B0
:10065000FB8980818062CFCFCF93DF93EC01888DBF
:100660008823B9F0AA89BB89E889F9898C9185FD2D
:1006700003C0808186FD0DC00FB607FCF7CF8C91BB
:1006800085FFF2CF808185FFEDCFCE010E94BD02B4
:10069000E9CFDF91CF91089580E090E0892B29F098
:1006A0000E94B30281110E94000080E090E0892B3B
:1006B00029F00E94A90281110E94000080E090E0D0
:1006C000892B49F080E090E0892B29F00E940000FE
:1006D00081110E94000080E090E0892B49F080E0C9
:1006E00090E0892B29F00E94000081110C940000F9
:1006F00008952FB7F8946091BB027091BC0280916D
:10070000BD029091BE022FBF08950F931F93809159
:100710001204811155C02091040430E0F901E7531F
:10072000FD4F8491F901E757FC4F94912D5B3C4FAD
:10073000F9012491222309F44DC1882311F181503C
:100740008231F8F4E82FF0E08827E655FC4F8F4F10
:100750000C94BD12AF04B304BC03A704AB04C103E3
:10076000B604BC04C004C604CA04CE04D404D8042D
:10077000C103DC04E204E604809180008F7780935B
:100780008000E22FF0E0EE0FFF1FE155FD4FA59135
:10079000B491EC919E2331E020E009F430E0832F06
:1007A000922F20911104309113042327F1E08F2719
:1007B000817082279091020480FB90F9909302044B
:1007C0008091020480FF3FC081FD5CC00E947903DC
:1007D00000910D0410910E0420910F04309110042B
:1007E000AB01BC01401B510B620B730B80910504E4
:1007F00090910604B0E0A0E0481759076A077B070C
:10080000F0F08091020482608093020480910B04D6
:100810008F5F80930B040E94790360930D047093A3
:100820000E0480930F04909310048091020480645E
:10083000809302048091030481608093030480917B
:10084000020480FD1FC08091020481FF55C0897F92
:100850008062809302040E94790360930D04709378
:100860000E0480930F0490931004809102048F77FC
:10087000809302048091030480FF04C08E7F826015
:10088000809303048091020481FF36C080FF34C04E
:100890000E94790300910D0410910E0420910F0421
:1008A00030911004AB01BC01401B510B620B730B68
:1008B0008091070490910804B0E0A0E04817590720
:1008C0006A077B07C8F08091020482FD15C0109270
:1008D0000B048461806880930204809103048E7FFE
:1008E000809303040E94790360930D0470930E04B7
:1008F00080930F04909310040E94790300910D04DB
:1009000010910E0420910F0430911004AB01BC0132
:10091000401B510B620B730B8091070490910804EC
:10092000B0E0A0E0481759076A077B0768F080919C
:100930000B04882349F080930C0410920B048091DF
:1009400002048860809302041F910F9108958091A2
:1009500080008F7D14CF80918000877F10CF84B579
:100960008F7784BD0ECF84B58F7DFBCF8091B00093
:100970008F778093B00005CF8091B0008F7DF9CF45
:10098000809190008F7780939000FBCE80919000B3
:100990008F7DF9CF80919000877FF5CF8091A00067
:1009A0008F778093A000EDCE8091A0008F7DF9CF4E
:1009B0008091A000877FF5CF809120018F77809371
:1009C0002001DFCE809120018F7DF9CF8091200121
:1009D000877FF5CF90E080E0E4CE0F931F93CF9315
:1009E000DF9300D000D000D01F92CDB7DEB78C01CE
:1009F00088E192E09A8389831B821C821D821E8279
:100A00001F82188619861A86D801ED91FC910190F3
:100A1000F081E02DAE014F5F5F4F6AE070E0C801EA
:100A200019950E947903F8016087718782879387FF
:100A30002A960FB6F894DEBF0FBECDBFDF91CF91DF
:100A40001F910F9108958E579B4FFC01808108954F
:100A5000442339F021E030E0FC013383228366E057
:100A600072E0CB010895AF92BF92CF92DF92EF92E6
:100A7000FF920F931F93CF93DF93643671054CF071
:100A8000FC01EE57FB4F2081C12CD12C222309F40D
:100A900061C0DA016B01EC01BC01655E7D4FED9137
:100AA000FC910190F081E02DCA0119958C017E0125
:100AB0002CEEE21A2DEFF20A2FEFD7012C93FE0154
:100AC000EB5EFD4F2EEF208331968083319690832D
:100AD0003196890F809580833196C0821696DC927C
:100AE00045E050E030E020E0C8010796481759077C
:100AF00030F46191260F311D4F5F5F4FF7CF085FD4
:100B00001F4F8C0F9D1FFC01EC5EFD4F2095208335
:100B10000130B2E01B07A8F468015701C5018E1926
:100B20009F0980179107B4F48A819B81F501619137
:100B30005F01DC01ED91FC910190F081E02D1995B0
:100B4000EDCF60E672E0CE010E941C02CC24CA9474
:100B5000DD24DA94C601DF91CF911F910F91FF90B0
:100B6000EF90DF90CF90BF90AF900895CF92DF923B
:100B7000EF92FF92DC011D921D921D921C92139721
:100B8000FB0130E020E0419150E0022E02C0440F12
:100B9000551F0A94E2F7052E000C660B770BCD90DB
:100BA000DD90ED90FC9013974C295D296E297F29EB
:100BB0004D935D936D937C931397285F3F4F203245
:100BC000310509F7FF90EF90DF90CF900895FC0179
:100BD000408351831282138208958EE892E0089533
:100BE0008EE792E008954F925F926F927F928F927C
:100BF0009F92AF92BF92EF92FF920F931F93CF936A
:100C0000DF9300D01F92CDB7DEB77C018B01CE0100
:100C100001960E94B60589819A81AB81BC814C0105
:100C20005D0124E0820E911CA11CB11CA8014D5F46
:100C30005F4FFA0124E030E02901712C612C481447
:100C400059046A047B0428F4618161932F5F3F4F4C
:100C5000F3CFF801E80FF91F1382F70153834283A2
:100C600004960F900F900F900F90DF91CF911F91EE
:100C70000F91FF90EF90BF90AF909F908F907F90DB
:100C80006F905F904F900895CB01089508958DE582
:100C900092E0089581E492E0089580E292E0089560
:100CA0008DE092E008954F925F926F927F928F92C3
:100CB0009F92AF92BF92EF92FF920F931F93CF93A9
:100CC000DF9300D01F92CDB7DEB77C018B01FB0113
:100CD0008191BF01F7018283CE0101960E94B60582
:100CE00089819A81AB81BC814C015D01F5E08F0E59
:100CF000911CA11CB11CA8014C5F5F4FFA0125E0BB
:100D000030E02901712C612C481459046A047B04D9
:100D100028F4618161932F5F3F4FF3CFF801E80F13
:100D2000F91F1482F7015483438305960F900F90A7
:100D30000F900F90DF91CF911F910F91FF90EF9047
:100D4000BF90AF909F908F907F906F905F904F90EB
:100D500008958CEE91E0089583ED91E008954F920F
:100D60005F926F927F928F929F92AF92BF92CF923B
:100D7000DF92EF92FF920F931F93CF93DF93CDB744
:100D8000DEB72C970FB6F894DEBF0FBECDBF7C0147
:100D90008B01DB018C9190E0F701938382831196A4
:100DA0002C91922B938382836E5F7F4FCE010196AD
:100DB0000E94B60589809A80AB80BC8024013501F1
:100DC000F6E04F0E511C611C711C98012B5F3F4FC8
:100DD000F90186E090E0AC0170E060E04415550553
:100DE0006605770520F4418141930196F4CFB40163
:100DF0006A5F7F4FF801E80DF91D1582D70115963E
:100E00003C932E931497600F711FCE0105960E949C
:100E1000B605BAE08B0E911C4D805E806F807884A1
:100E2000C401092C000CAA0BBB0B5C016D01A40CC6
:100E3000B51CC61CD71CF801E80DF91DAF01401BFD
:100E4000510B70E060E04A155B056C057D0538F4D8
:100E50002191AF0142505109DA012C93EFCF480C98
:100E6000591CB801640D751DFB0131971082C40136
:100E70000197800F911FF70197838683CE01099612
:100E80000E94B60592012C5F3F4F89849A84AB84FF
:100E9000BC84A901032E000C660B770B480D591D6D
:100EA0006A1D7B1DF801E20FF31FCF01801B910B20
:100EB000B0E0A0E084179507A607B70728F4819152
:100EC000DF0112978C93F1CFC901880D991DF801AC
:100ED000E80FF91FDF0111971C9221503109020F11
:100EE000131FD70119961C930E93189721814281E5
:100EF00050E070E060E0BA0155274427522B208172
:100F0000422B2381722BF7014287538764877587B1
:100F100004962C960FB6F894DEBF0FBECDBFDF91BE
:100F2000CF911F910F91FF90EF90DF90CF90BF90E6
:100F3000AF909F908F907F906F905F904F900895AB
:100F400082EB91E0089584EA91E00895FC01DB01D1
:100F50004C9150E070E060E042835383648375837A
:100F600011968C911197582B428353836483758318
:100F700012968C911297682B4283538364837583F6
:100F800013968C911397782B4283538364837583D4
:100F900014964C91149750E070E060E046835783BC
:100FA0006087718715968C911597582B46835783C8
:100FB0006087718716968C911697682B46835783A6
:100FC0006087718717968C91782B4683578360874B
:100FD000718788E090E00895DC01FB0112968C9106
:100FE0001297808313968C911397818314968C911A
:100FF0001497828315968C911597838316968C91FE
:101000001697848317968C911797858318968C91E1
:101010001897868319968C91878388E090E00895CD
:1010200042E050E069E972E080EC92E00C943F020B
:10103000CF93DF93682F80EC92E00E94DF02EC01F7
:101040000E9410088C0F9D1FDF91CF910895EF92A1
:10105000FF920F931F93CF93DF937C018B01DC01F1
:101060001296ED91FC91EF0109900020E9F721978C
:10107000CE1BDF0BAE0170E060E0C8010E94E70507
:10108000F70162817381AE01C80104960E940E15BA
:10109000CE010496DF91CF911F910F91FF90EF90B9
:1010A00008954F925F926F927F928F929F92AF922C
:1010B000BF92CF92DF92EF92FF920F931F93CF9345
:1010C000DF93EC017B018A81FB0180838B8181832B
:1010D0008C8182838D8183833496412C512C320103
:1010E00004E010E09F012F5F3F4FCF010296DF0128
:1010F0001396A8010C5F1F4F8A809B80AC80BD8037
:10110000481459046A047B04C8F4AA85BB85A40F5B
:10111000B51F14974C9111962C91119712969C9192
:10112000129713968C9140832183928383838FEF50
:10113000481A580A680A780A3496D4CF4C854083F6
:101140004D85F90140832E85FC0120838F858C938A
:10115000F701E00FF11F412C512C3201AF019F012B
:101160002F5F3F4FCF010296DF0113960C5F1F4F99
:101170008C849D84AE84BF84481459046A047B0423
:10118000D8F4CF01841B950BAC89BD89A80FB91F7A
:101190003C9111962C91119712969C91129713964F
:1011A0008C9130832183928383838FEF481A580A6E
:1011B000680A780A3496D3CF4E8940834F89F90163
:1011C0004083288DFC012083898D8C93412C512CE8
:1011D00032018E899F89A88DB98D481659066A06F5
:1011E0007B0680F55201AA0CBB1CEC8DFD8DEA0D2F
:1011F000FB1DA081B181FD0101900020E9F731972D
:101200006F01CA1ADB0AA60170E060E0C701800F17
:10121000911F0E94E7050C5F1F4F8C8D9D8DA80EBE
:10122000B91EF50160817181A601C701800F911F70
:101230000E940E150C0D1D1DFFEF4F1A5F0A6F0A5D
:101240007F0AC7CFC801DF91CF911F910F91FF9007
:10125000EF90DF90CF90BF90AF909F908F907F9056
:101260006F905F904F900895EF92FF920F931F93AE
:10127000CF93DF938C017B01DC0112962C911297A6
:10128000FB012193CF011396ED91FC91EF010990A1
:101290000020E9F72197CE1BDF0BAE0170E060E084
:1012A0000E94E705D80113966D917C91AE01C701AC
:1012B00005960E940E15CE010596DF91CF911F91E4
:1012C0000F91FF90EF900895CF92DF92EF92FF92EF
:1012D0000F931F93CF93DF936C01EB01DC01129608
:1012E0008C911297888313968C9113978983149607
:1012F000ED91FC91DF010D900020E9F78D01015087
:1013000011090E1B1F0BA80170E060E0CE010296D0
:101310000E94E705F60164817581A801CE01069659
:101320000E940E15C8010696F601A681B781FD013F
:1013300001900020E9F731977F01EA1AFB0AA70123
:1013400070E060E08C0F9D1F0E94E705065F1F4F55
:10135000D60116966D917C91A701CE01800F911F49
:101360000E940E150E0D1F1DF601A085B185FD0111
:1013700001900020E9F731977F01EA1AFB0AA701E3
:1013800070E060E0CE01800F911F0E94E7050C5FC6
:101390001F4FD60118966D917C91A701CE01800F49
:1013A000911F0E940E15C701800F911FF6016285E3
:1013B000438534852585C80FD91F688349833A83BF
:1013C0002B830496DF91CF911F910F91FF90EF90A7
:1013D000DF90CF9008950C94A4132F923F924F92D8
:1013E0005F926F927F928F929F92AF92BF92CF92B5
:1013F000DF92EF92FF920F931F93CF93DF93CDB7BE
:10140000DEB72E970FB6F894DEBF0FBECDBF8C01AE
:101410006B01DB018D909D90AD90BC90FC018281B1
:101420009381A481B58188159905AA05BB0570F43F
:10143000B401660F771F660F771F828593850E9420
:101440002D14D8011B969C938E931A97F8018282D3
:101450009382A482B582C60140E050E0BA01A4E0C4
:10146000EA2EF12C98012A5F3F4FDC011596EC9192
:10147000159716964C901697512C712C612C3201B1
:10148000552444245E2A1496EC9114974E2A1796FC
:10149000EC917E2AD7011701E4E02E0E311C710178
:1014A0000496F80182809380A480B5804815590580
:1014B0006A057B05A8F44682578260867186149778
:1014C000A284B384AA0DBB1DE4E0BE2EF9010190F5
:1014D0000D92BA94E1F74F5F5F4F6F4F7F4FC5CFCB
:1014E00084859585A685B78584159505A605B705D8
:1014F00070F4B201660F771F660F771F8489958994
:101500000E942D14D80155969C938E935497F80100
:101510004486558666867786C601820D931D412CCA
:10152000512C32011C019801205F3F4FDC011196C4
:101530006C91119712968C901297912CB12CA12C32
:10154000540199248824962A6C91862A13966C91CA
:10155000B62AB4E0EB0EF11CF8014485558566858A
:1015600077854416550666067706C0F4808A918A08
:10157000A28AB38ABC0162197309A489B589A60F2E
:10158000B71F64E0F90101900D926A95E1F7BFEF92
:101590004B1A5B0A6B0A7B0A0496C8CF8689978927
:1015A000A08DB18D88159905AA05BB0560F4B4011D
:1015B000660F771F848D958D0E942D14D8015D963E
:1015C0009C938E935C97F801868A978AA08EB18E41
:1015D000412C512C32011801FAE12F0E311CF80177
:1015E00086899789A08DB18D481659066A067B06B3
:1015F00008F05CC0B6016E0D7F1DCE0101960E9401
:10160000B60597012C5F3F4F3E872D8789809A80D2
:10161000AB80BC80C901032E000CAA0BBB0BAC0134
:10162000BD01480D591D6A1D7B1D49875A876B876F
:101630007C87F901EC0DFD1D9F012C193D09B901B5
:1016400090E080E029853A854B855C8562177307B9
:101650008407950728F42191DF0112972C93ECCF92
:10166000ED84FE84E80CF91CF601EE0DFF1D3197A8
:1016700010828D859E8501978C0D9D1DD8015B96EE
:101680009C938E935A97C201880F991F5C96ED9197
:10169000FC91E80FF91FD1018D919C91918380837A
:1016A000BFEF4B1A5B0A6B0A7B0A99CFC7012E96D4
:1016B0000FB6F894DEBF0FBECDBFDF91CF911F9163
:1016C0000F91FF90EF90DF90CF90BF90AF909F90E1
:1016D0008F907F906F905F904F903F902F900895E4
:1016E0002F923F924F925F926F927F928F929F9232
:1016F000AF92BF92CF92DF92EF92FF920F931F9320
:10170000CF93DF93CDB7DEB7A6970FB6F894DEBFC1
:101710000FBECDBF8C010E9479032B013C019801C3
:1017200029573B4F3C8B2B8BF90180819181A28102
:10173000B381A3019201281B390B4A0B5B0BDA0121
:10174000C901893F9A42A105B10510F03597108271
:10175000480148E8841A4BEF940AD4018D919C917A
:10176000892B79F0F801E557FB4F80819181A281A7
:10177000B38184159505A605B70518F4F401118207
:101780001082980120583B4F388B2F87A80144586E
:101790005B4F5A8B498B180154E1250E311CC8014F
:1017A0008E579B4F988F8F8BD801A057BB4FBE8F02
:1017B000AD8FF801E157FB4FF8A3EF8F5801F6E822
:1017C000AF1AFBEFBF0A225031093E8B2D8BA801C7
:1017D00045575B4F5AA349A3D301C2014496A11DAB
:1017E000B11D8BA39CA3ADA3BEA3D80112968D916E
:1017F0009C91DC01ED91FC910284F385E02D19951B
:101800009C0197FDAFC2EF85F88980819181820F9D
:10181000931F91838083D4014D915C911197473040
:101820005105E1F4ED89FE8980819181AC014F5F22
:101830005F4F51834083800F911FDC0154962C939E
:10184000F50180819181019791838083892B69F6CD
:1018500088E090E0D4018D939C93C7CF411551054A
:1018600009F03FC02F3F310589F481E090E0F40199
:10187000918380832BA13CA14DA15EA1A9A1BAA116
:101880002D933D934D935C931397AFCF0E947903B3
:1018900064197509860997096630710581059105F6
:1018A00008F4A3CFF801EE57FB4F10828EEF9FEFA5
:1018B000A6960FB6F894DEBF0FBECDBFDF91CF91D5
:1018C0001F910F91FF90EF90DF90CF90BF90AF905E
:1018D0009F908F907F906F905F904F903F902F9050
:1018E00008954130510581F482E090E02E3F3105AA
:1018F00071F11D921C92EF89F88D8081811175CF55
:10190000C8010E94ED0471CF4230510589F4D50120
:101910002D933C93ED89FE891182108283E090E043
:10192000D4018D939C93EF85F889318320835DCF1B
:101930004330510581F4322F2227D5018D919C919E
:101940001197280F391F2D933C9384E090E0F40108
:10195000918380834ACF4430510571F460E071E097
:101960000E9487128F3F910519F485E090E072CFB5
:10197000F4011182108239CF4530510571F4A989E3
:10198000BA892D933C9386E090E0F40191838083A3
:10199000AF85B8892D933C9328CF4630510591F4FB
:1019A000322F2227E989FA8980819181280F391FF6
:1019B0003183208387E090E08D939C93F5018081B3
:1019C000918144CF4830510509F00FCF1D921C92F0
:1019D00060E071E00E9487128F3F910509F005CF0A
:1019E000A989BA89ED91FC91309709F0ECC0C80142
:1019F0000E94ED048CE092E09A8389831C821B8212
:101A00008BE992E09E838D8398878F839A8789875D
:101A10001B861C861D861E866801BCEECB1ABBEF9A
:101A2000DB0A7801EAEBEE1AEBEFFE0AD601ED9144
:101A3000FC91309709F44BC0858196819C838B8300
:101A4000808191812281B12CA12C222329F0AA240A
:101A5000A394B12C86E092E09E838D838381948150
:101A6000DC01ED91FC910480F581E02D19959887BA
:101A70008F83D601ED91FC9183819481DC01ED91FE
:101A8000FC910680F781E02D19959A87898720E0DF
:101A900032E040E050E02B873C874D875E87D601DF
:101AA000ED91FC9161857285D801ED91FC910190D9
:101AB000F081E02DAE014F5F5F4FC8011995AA94E8
:101AC000AB2829F46CE972E0C8010E941C02E2E034
:101AD000CE0ED11CEC14FD0409F0A8CFF701A081B3
:101AE000B181109709F454C012968D919C9113976F
:101AF0009C838B8314968D919C91159716962C91AF
:101B00001697D12CC12C222329F0CC24C394D12C9C
:101B100086E092E09E838D83ED91FC911197048085
:101B2000F581E02DCD01199598878F83D7018D918F
:101B30009C91DC01ED91FC910680F781E02D1995D7
:101B40009A87898720E032E040E050E02B873C878D
:101B50004D875E87D801ED91FC91A080B180F7019F
:101B600080819181DC01ED91FC910280F381E02D77
:101B70001995AE014F5F5F4FBC01C801F501199582
:101B8000CA94CD2829F46CE972E0C8010E941C02B5
:101B900022E0E20EF11C8E149F0409F09FCFF801A1
:101BA000EE57FB4F81E08083319640825182628202
:101BB0007382AB89BC894D925D926D927C92139732
:101BC0008FEF9FEF75CEEA30F10509F0A3C088E1F1
:101BD00092E09A8389831B821C821D821E821F824F
:101BE000188619861A860E947903F801C084D18468
:101BF000E284F3849B01AC012C193D094E095F0975
:101C000069017A01B101CE0101960E94A607C701C0
:101C1000B60128EE33E040E050E00E949B126901DB
:101C20007A019B01AC018B819C81AD81BE818C0DC1
:101C30009D1DAE1DBF1D8B839C83AD83BE8360E461
:101C400072E48FE090E00E947712CF80D884E9841C
:101C5000FA84DC01CB018C0D9D1DAE1DBF1D8F8351
:101C60009887A987BA870E947903CF80D884E984AE
:101C7000FA8436E3D31A35E6E30A34ECF30A28EEA5
:101C800033E040E050E00E949B12298F3A8F4B8F47
:101C90005C8F9B01AC0160E472E48FE090E00E94F5
:101CA0007712A7019601261B370B480B590BCA0167
:101CB000B901CB80DC80ED80FE8031E0C31AD10811
:101CC000E108F108298D3A8D4B8D5C8DC21AD30A3B
:101CD000E40AF50A20E03AEC4AE95BE30E949B1231
:101CE0002C0D3D1D4E1D5F1DD8011C962D933D935F
:101CF0004D935C931F97F801608B718B828B938B54
:101D00000E947903AB89BC896D937D938D939C93DD
:101D100013976BCDE630F10551F4B1018D8D9E8D99
:101D20000E94ED0981E0EF8DF8A180835ECDEB305C
:101D3000F10521F4AF89B88D1C9257CDE154FE4FC7
:101D4000EE0FFF1FE00FF11F80819181009709F4D2
:101D50004CCDDC01ED91FC910190F081E02DB101C1
:101D6000199543CDF801EE57FB4F8081882301F18F
:101D70007801BDE7EB1ABBEFFB0AF7018081918187
:101D8000A281B381A3019201281B390B4A0B5B0B83
:101D9000DA01C901853C9940A105B10548F0C801A7
:101DA0000E94ED04D7014D925D926D927C92139743
:101DB00090E080E07DCD1F920F920FB60F9211241C
:101DC0000BB60F922F933F934F935F936F937F9335
:101DD0008F939F93AF93BF93EF93FF938DE593E022
:101DE0000E94BD02FF91EF91BF91AF919F918F91A2
:101DF0007F916F915F914F913F912F910F900BBE0B
:101E00000F900FBE0F901F9018951F920F920FB654
:101E10000F9211240BB60F922F938F939F93EF93F2
:101E2000FF93E0916D03F0916E038081E091730365
:101E3000F091740382FD1DC09081809176038F5FC5
:101E40008F7320917703821741F0E0917603F0E0E1
:101E5000E35AFC4F958F80937603FF91EF919F910A
:101E60008F912F910F900BBE0F900FBE0F901F9070
:101E700018958081F2CF1F920F920FB60F92112406
:101E80000BB60F922F933F934F935F936F937F9374
:101E90008F939F93AF93BF93EF93FF9380EC92E068
:101EA0000E94BD02FF91EF91BF91AF919F918F91E1
:101EB0007F916F915F914F913F912F910F900BBE4A
:101EC0000F900FBE0F901F9018951F920F920FB694
:101ED0000F9211240BB60F922F938F939F93EF9332
:101EE000FF93E091D002F091D1028081E091D6027F
:101EF000F091D70282FD1DC090818091D9028F5F41
:101F00008F732091DA02821741F0E091D902F0E05C
:101F1000E054FD4F958F8093D902FF91EF919F91EF
:101F20008F912F910F900BBE0F900FBE0F901F90AF
:101F300018958081F2CF1F920F920FB60F92112445
:101F40002F933F938F939F93AF93BF938091BB0247
:101F50009091BC02A091BD02B091BE023091BA0234
:101F600023E0230F2D3758F50196A11DB11D2093B5
:101F7000BA028093BB029093BC02A093BD02B093BF
:101F8000BE028091B6029091B702A091B802B091C2
:101F9000B9020196A11DB11D8093B6029093B702BC
:101FA000A093B802B093B902BF91AF919F918F9166
:101FB0003F912F910F900FBE0F901F90189526E81C
:101FC000230F0296A11DB11DD2CFCF93DF931092A4
:101FD000600310925F0348EE53E060E070E04093CE
:101FE000610350936203609363037093640380E31F
:101FF00092E090935E0380935D032DEC30E030938C
:102000006A03209369032CEC30E030936C03209337
:102010006B0328EC30E030936E0320936D0329ECC2
:1020200030E03093700320936F032AEC30E030935C
:102030007203209371032EEC30E0309374032093ED
:102040007303109276031092770310927803109224
:1020500079031092C3021092C2024093C4025093BB
:10206000C5026093C6027093C7029093C102809329
:10207000C00285EC90E09093CD028093CC0284EC7A
:1020800090E09093CF028093CE0280EC90E090930A
:10209000D1028093D00281EC90E09093D3028093A0
:1020A000D20282EC90E09093D5028093D40286EC29
:1020B00090E09093D7028093D6021092D9021092AA
:1020C000DA021092DB021092DC028EE492E090932E
:1020D0001A04809319048DE593E090931C04809377
:1020E0001B0480E092ECA1E0B0E080931D0490938B
:1020F0001E04A0931F04B093200410929B0882E456
:1021000092E09093AA088093A9081092BF081092B9
:10211000C0081092C1081092C2081092C60810920E
:10212000C508EDE2F8E01192119288E0EF35F8076A
:10213000D1F7EFE5F8E01192119288E0E139F80764
:10214000D1F7EDE2F4E0119286E0ED32F807D9F72D
:10215000EDE2F6E0119288E0ED32F807D9F710923F
:10216000AB081092AC081092AD081092AE08109215
:10217000B4081092B3081092B5081092B6081092E5
:10218000B7081092B8081092BE081092BD0888E5F2
:1021900092E090931604809315048BE992E090935B
:1021A00018048093170410920B0410920C041092E0
:1021B0000D0410920E0410920F041092100410924D
:1021C000110410921204109213041092140487E068
:1021D0008093040484E690E09093060480930504C1
:1021E00084EF91E0909308048093070480E991E0E4
:1021F00090930A0480930904E0E9F3E02491EAE46F
:10220000F3E084918823C1F090E0880F991FFC01CE
:10221000E75DFC4FC591D491FC01E15FFC4FA591B6
:10222000B4919FB7F8943881822F80958323888357
:10223000EC91E22BEC939FBF0E947903DC01CB0170
:102240006093FA039093FB03A093FC03B093FD0308
:102250001092FE031092FF031092000410920104EA
:10226000DF91CF910C947903CF93DF9300D000D00E
:1022700000D01F92CDB7DEB7789484B5826084BD5C
:1022800084B5816084BD85B5826085BD85B581607A
:1022900085BD80916E00816080936E0010928100F8
:1022A00080918100826080938100809181008160B3
:1022B0008093810080918000816080938000809174
:1022C000B10084608093B1008091B0008160809300
:1022D000B000809191008260809391008091910084
:1022E0008160809391008091900081608093900044
:1022F0008091A10082608093A1008091A100816003
:102300008093A1008091A00081608093A0008091C3
:10231000210182608093210180912101816080935D
:1023200021018091200181608093200180917A00B9
:10233000846080937A0080917A00826080937A0032
:1023400080917A00816080937A0080917A00806821
:1023500080937A001092C100E091D002F091D102F6
:1023600082E08083E091CC02F091CD021082E09176
:10237000CE02F091CF028FEC80831092D802E091D0
:10238000D402F091D50286E08083E091D202F091F0
:10239000D302808180618083E091D202F091D302E8
:1023A000808188608083E091D202F091D3028081A5
:1023B00080688083E091D202F091D30280818F7D8A
:1023C000808345E050E060EB72E080EC92E00E9498
:1023D0003F020E941008992493940E9485038091E3
:1023E000140481110E9485038091030481FF05C0BC
:1023F0008D7F809303049092BF020E9479033090F6
:10240000FA034090FB035090FC036090FD03709032
:10241000FE038090FF03E0900004EA86F090010440
:10242000F9869B01AC0160E070E080E090E0A32CB5
:10243000B42CC52CD62CE72CF82C0A8519850E94C3
:10244000D012A0E00E94D912D9F1D4F10E947903F0
:102450009B01AC0160E070E080E090E0A32CB42C24
:10246000C52CD62C0A8519850E94D012283C31052E
:10247000410551056105710581059105F1F0ECF00B
:102480008091BF02882379F181E30E94180810929D
:10249000BF020E9479037B018C016093FA03F092E2
:1024A000FB038093FC031093FD031092FE03109234
:1024B000FF0310920004109201040E944C038DCF80
:1024C0000E9479037B018C01232D342D452D562D3F
:1024D000672D782D8A85998557016801E12CF12CAB
:1024E00000E010E0C1CF80E30E941808D2CFDB01EA
:1024F0008F939F930E94C512BF91AF91A29F800DB1
:10250000911DA39F900DB29F900D1124089597FBEC
:10251000072E16F4009407D077FD09D00E94E5122B
:1025200007FC05D03EF4909581959F4F08957095D6
:1025300061957F4F0895A1E21A2EAA1BBB1BFD01D6
:102540000DC0AA1FBB1FEE1FFF1FA217B307E40792
:10255000F50720F0A21BB30BE40BF50B661F771FEA
:10256000881F991F1A9469F76095709580959095CA
:102570009B01AC01BD01CF010895EE0FFF1F881F25
:102580008BBF0790F691E02D19940E94F912A59F38
:10259000900DB49F900DA49F800D911D112408955E
:1025A0002A193B094C095D096E097F09800B910BC3
:1025B00008950024A7FD00942A1730054005500512
:1025C00060057005800590050895AA1BBB1B51E1AD
:1025D00007C0AA1FBB1FA617B70710F0A61BB70B93
:1025E000881F991F5A95A9F780959095BC01CD0138
:1025F0000895A29FB001B39FC001A39F700D811DDC
:102600001124911DB29F700D811D1124911D0895FB
:102610000F931F93CF93DF938230910510F482E0E4
:1026200090E0E091C908F091CA0830E020E0B0E005
:10263000A0E0309799F42115310509F44AC0281B10
:10264000390B24303105D8F58A819B8161157105DC
:1026500089F1FB0193838283FE0111C04081518186
:102660000281138148175907E0F04817590799F478
:10267000109761F012960C93129713961C93329652
:10268000CF01DF91CF911F910F9108950093C90859
:102690001093CA08F4CF2115310551F042175307A2
:1026A00038F0A901DB019A01BD01DF01F801C1CFBA
:1026B000EF01F9CF9093CA088093C908CDCFFE01EE
:1026C000E20FF31F819391932250310939832883BC
:1026D000D7CF2091C7083091C808232B41F420910F
:1026E0000202309103023093C8082093C70820915A
:1026F0000002309101022115310541F42DB73EB79A
:102700004091040250910502241B350BE091C7084B
:10271000F091C808E217F307A0F42E1B3F0B28170F
:10272000390778F0AC014E5F5F4F2417350748F04A
:102730004E0F5F1F5093C8084093C7088193919331
:102740009FCFF0E0E0E09CCFCF93DF930097E9F0DC
:10275000FC01329713821282A091C908B091CA0875
:10276000ED0130E020E01097A1F420813181820F4B
:10277000931F2091C7083091C8082817390709F01E
:1027800061C0F093C808E093C708DF91CF91089526
:10279000EA01CE17DF07E8F54A815B819E0141150A
:1027A0005105B1F7E901FB83EA8349915991C40FBF
:1027B000D51FEC17FD0761F4808191810296840F8B
:1027C000951FE90199838883828193819B838A8302
:1027D000F0E0E0E012968D919C9113970097B9F587
:1027E0002D913C911197CD010296820F931F20915C
:1027F000C7083091C8082817390739F6309751F5BE
:102800001092CA081092C908B093C808A093C708CC
:10281000BCCFD383C28340815181840F951FC817D9
:10282000D90761F44E5F5F4F88819981480F591F26
:10283000518340838A819B81938382832115310553
:1028400009F0B0CFF093CA08E093C9089ECFFD010C
:10285000DC01C0CF13821282D7CF4F925F926F926A
:102860007F928F929F92AF92BF92CF92DF92EF9220
:10287000FF920F931F93CF93DF938C01009799F4EE
:10288000CB01DF91CF911F910F91FF90EF90DF90DF
:10289000CF90BF90AF909F908F907F906F905F9000
:1028A0004F900C940813FC01E60FF71F9C01225077
:1028B0003109E217F30708F4AEC0D901CD91DC91DC
:1028C0001197C617D70720F1C530D10578F0CE0192
:1028D00004978617970750F0C61BD70B2297C19312
:1028E000D1936D937C93CF010E94A413C801DF9113
:1028F000CF911F910F91FF90EF90DF90CF90BF90FD
:10290000AF909F908F907F906F905F904F900895C1
:102910005B01AC1ABD0A4C018C0E9D1EA091C9082A
:10292000B091CA08512C412CF12CE12C109731F5B3
:102930008091C7089091C8088815990509F05CC076
:102940004616570608F058C0809100029091010287
:10295000009741F48DB79EB7409104025091050253
:10296000841B950BE817F90708F055C0F093C808C9
:10297000E093C708F90171836083B8CF8D919C9172
:10298000119712966C90129713967C901397A81536
:10299000B90559F56C0142E0C40ED11CCA14DB0420
:1029A00020F1AC014A195B09DA011296159780F003
:1029B0006282738251834083D9016D937C93E114C9
:1029C000F10471F0D7011396FC93EE9312978ECF1A
:1029D00022968C0F9D1FF90191838083F301EFCF25
:1029E000F093CA08E093C90881CF4816590608F445
:1029F0002C017D01D3019ACFCB010E9408137C01E9
:102A0000009749F0AE01B8010E940E15C8010E945E
:102A1000A41387016BCF10E000E068CFFB01DC015D
:102A200002C001900D9241505040D8F70895F8949B
:022A3000FFCFD6
:102A32000000CB0880000000000000006409AF061F
:102A4200AC06A90600000000EC07A607A307A00732
:102A5200000000003409530650064D060000000035
:102A6200DF023F026C022C039D027B028F020000F8
:102A720000005108ED094A06470600000000330530
:102A8200700B2305000000002708F305F005ED0593
:102A92004D6573736167652066726F6D206465763C
:102AA2006963652064726F707065643A206D657346
:102AB20073616765206C6172676572207468616E0C
:102AC200206275666665722E000D0A00466C61739F
:102AD200682072656164206E6F7420696D706C008D
:062AE200537461727400E0
:00000001FF
